{
  "contractName": "CertManager",
  "abi": [
    {
      "constant": false,
      "inputs": [
        {
          "name": "_certTypeId",
          "type": "string"
        },
        {
          "name": "_name",
          "type": "string"
        },
        {
          "name": "_issuerName",
          "type": "string"
        },
        {
          "name": "_descUrl",
          "type": "string"
        }
      ],
      "name": "registerCertType",
      "outputs": [],
      "payable": false,
      "stateMutability": "nonpayable",
      "type": "function",
      "signature": "0x7fa985a7"
    },
    {
      "constant": true,
      "inputs": [
        {
          "name": "_certTypeId",
          "type": "string"
        }
      ],
      "name": "viewCertTypeInfo",
      "outputs": [
        {
          "name": "",
          "type": "string"
        },
        {
          "name": "",
          "type": "string"
        },
        {
          "name": "",
          "type": "string"
        },
        {
          "name": "",
          "type": "bool"
        }
      ],
      "payable": false,
      "stateMutability": "view",
      "type": "function",
      "signature": "0x06f68fa6"
    },
    {
      "constant": false,
      "inputs": [
        {
          "name": "_certId",
          "type": "string"
        },
        {
          "name": "_issueDt",
          "type": "string"
        },
        {
          "name": "_validThroughDt",
          "type": "string"
        },
        {
          "name": "_certNo",
          "type": "string"
        },
        {
          "name": "_certTypeId",
          "type": "string"
        }
      ],
      "name": "registerPersonalCert",
      "outputs": [],
      "payable": true,
      "stateMutability": "payable",
      "type": "function",
      "signature": "0x28336c30"
    },
    {
      "constant": false,
      "inputs": [
        {
          "name": "_certId",
          "type": "string"
        }
      ],
      "name": "confirmPersonalCert",
      "outputs": [],
      "payable": false,
      "stateMutability": "nonpayable",
      "type": "function",
      "signature": "0xd71a7dc7"
    },
    {
      "constant": false,
      "inputs": [
        {
          "name": "_tokenId",
          "type": "string"
        },
        {
          "name": "_certId",
          "type": "string"
        },
        {
          "name": "_validDay",
          "type": "uint256"
        }
      ],
      "name": "registerCertToken",
      "outputs": [],
      "payable": false,
      "stateMutability": "nonpayable",
      "type": "function",
      "signature": "0x8db5ed0d"
    },
    {
      "constant": true,
      "inputs": [
        {
          "name": "_tokenId",
          "type": "string"
        }
      ],
      "name": "viewPersonalCertByToken",
      "outputs": [
        {
          "name": "",
          "type": "string"
        },
        {
          "name": "",
          "type": "string"
        },
        {
          "name": "",
          "type": "string"
        },
        {
          "name": "",
          "type": "string"
        },
        {
          "name": "",
          "type": "string"
        },
        {
          "name": "",
          "type": "string"
        }
      ],
      "payable": false,
      "stateMutability": "view",
      "type": "function",
      "signature": "0x882d71d7"
    },
    {
      "constant": true,
      "inputs": [
        {
          "name": "_certId",
          "type": "string"
        }
      ],
      "name": "viewPersonalCertByCertId",
      "outputs": [
        {
          "name": "",
          "type": "string"
        },
        {
          "name": "",
          "type": "string"
        },
        {
          "name": "",
          "type": "string"
        },
        {
          "name": "",
          "type": "string"
        },
        {
          "name": "",
          "type": "string"
        },
        {
          "name": "",
          "type": "string"
        },
        {
          "name": "",
          "type": "bool"
        }
      ],
      "payable": false,
      "stateMutability": "view",
      "type": "function",
      "signature": "0x7ca782d0"
    },
    {
      "constant": true,
      "inputs": [
        {
          "name": "_tokenId",
          "type": "string"
        }
      ],
      "name": "viewTokenDetail",
      "outputs": [
        {
          "name": "",
          "type": "string"
        },
        {
          "name": "",
          "type": "uint256"
        },
        {
          "name": "",
          "type": "uint256"
        },
        {
          "name": "",
          "type": "uint256"
        }
      ],
      "payable": false,
      "stateMutability": "view",
      "type": "function",
      "signature": "0x00878744"
    }
  ],
  "bytecode": "0x608060405233600360006101000a81548173ffffffffffffffffffffffffffffffffffffffff021916908373ffffffffffffffffffffffffffffffffffffffff160217905550670de0b6b3a764000060045534801561005d57600080fd5b50613c7e8061006d6000396000f3fe60806040526004361061008d576000357c0100000000000000000000000000000000000000000000000000000000900463ffffffff1680628787441461009257806306f68fa6146101e857806328336c301461040c5780637ca782d0146107235780637fa985a714610a8b578063882d71d714610d185780638db5ed0d14611075578063d71a7dc7146111de575b600080fd5b34801561009e57600080fd5b50610158600480360360208110156100b557600080fd5b81019080803590602001906401000000008111156100d257600080fd5b8201836020820111156100e457600080fd5b8035906020019184600183028401116401000000008311171561010657600080fd5b91908080601f016020809104026020016040519081016040528093929190818152602001838380828437600081840152601f19601f8201169050808301925050505050505091929192905050506112a6565b6040518080602001858152602001848152602001838152602001828103825286818151815260200191508051906020019080838360005b838110156101aa57808201518184015260208101905061018f565b50505050905090810190601f1680156101d75780820380516001836020036101000a031916815260200191505b509550505050505060405180910390f35b3480156101f457600080fd5b506102ae6004803603602081101561020b57600080fd5b810190808035906020019064010000000081111561022857600080fd5b82018360208201111561023a57600080fd5b8035906020019184600183028401116401000000008311171561025c57600080fd5b91908080601f016020809104026020016040519081016040528093929190818152602001838380828437600081840152601f19601f820116905080830192505050505050509192919290505050611513565b6040518080602001806020018060200185151515158152602001848103845288818151815260200191508051906020019080838360005b838110156103005780820151818401526020810190506102e5565b50505050905090810190601f16801561032d5780820380516001836020036101000a031916815260200191505b50848103835287818151815260200191508051906020019080838360005b8381101561036657808201518184015260208101905061034b565b50505050905090810190601f1680156103935780820380516001836020036101000a031916815260200191505b50848103825286818151815260200191508051906020019080838360005b838110156103cc5780820151818401526020810190506103b1565b50505050905090810190601f1680156103f95780820380516001836020036101000a031916815260200191505b5097505050505050505060405180910390f35b610721600480360360a081101561042257600080fd5b810190808035906020019064010000000081111561043f57600080fd5b82018360208201111561045157600080fd5b8035906020019184600183028401116401000000008311171561047357600080fd5b91908080601f016020809104026020016040519081016040528093929190818152602001838380828437600081840152601f19601f820116905080830192505050505050509192919290803590602001906401000000008111156104d657600080fd5b8201836020820111156104e857600080fd5b8035906020019184600183028401116401000000008311171561050a57600080fd5b91908080601f016020809104026020016040519081016040528093929190818152602001838380828437600081840152601f19601f8201169050808301925050505050505091929192908035906020019064010000000081111561056d57600080fd5b82018360208201111561057f57600080fd5b803590602001918460018302840111640100000000831117156105a157600080fd5b91908080601f016020809104026020016040519081016040528093929190818152602001838380828437600081840152601f19601f8201169050808301925050505050505091929192908035906020019064010000000081111561060457600080fd5b82018360208201111561061657600080fd5b8035906020019184600183028401116401000000008311171561063857600080fd5b91908080601f016020809104026020016040519081016040528093929190818152602001838380828437600081840152601f19601f8201169050808301925050505050505091929192908035906020019064010000000081111561069b57600080fd5b8201836020820111156106ad57600080fd5b803590602001918460018302840111640100000000831117156106cf57600080fd5b91908080601f016020809104026020016040519081016040528093929190818152602001838380828437600081840152601f19601f8201169050808301925050505050505091929192905050506119e3565b005b34801561072f57600080fd5b506107e96004803603602081101561074657600080fd5b810190808035906020019064010000000081111561076357600080fd5b82018360208201111561077557600080fd5b8035906020019184600183028401116401000000008311171561079757600080fd5b91908080601f016020809104026020016040519081016040528093929190818152602001838380828437600081840152601f19601f820116905080830192505050505050509192919290505050611c82565b604051808060200180602001806020018060200180602001806020018815151515815260200187810387528e818151815260200191508051906020019080838360005b8381101561084757808201518184015260208101905061082c565b50505050905090810190601f1680156108745780820380516001836020036101000a031916815260200191505b5087810386528d818151815260200191508051906020019080838360005b838110156108ad578082015181840152602081019050610892565b50505050905090810190601f1680156108da5780820380516001836020036101000a031916815260200191505b5087810385528c818151815260200191508051906020019080838360005b838110156109135780820151818401526020810190506108f8565b50505050905090810190601f1680156109405780820380516001836020036101000a031916815260200191505b5087810384528b818151815260200191508051906020019080838360005b8381101561097957808201518184015260208101905061095e565b50505050905090810190601f1680156109a65780820380516001836020036101000a031916815260200191505b5087810383528a818151815260200191508051906020019080838360005b838110156109df5780820151818401526020810190506109c4565b50505050905090810190601f168015610a0c5780820380516001836020036101000a031916815260200191505b50878103825289818151815260200191508051906020019080838360005b83811015610a45578082015181840152602081019050610a2a565b50505050905090810190601f168015610a725780820380516001836020036101000a031916815260200191505b509d505050505050505050505050505060405180910390f35b348015610a9757600080fd5b50610d1660048036036080811015610aae57600080fd5b8101908080359060200190640100000000811115610acb57600080fd5b820183602082011115610add57600080fd5b80359060200191846001830284011164010000000083111715610aff57600080fd5b91908080601f016020809104026020016040519081016040528093929190818152602001838380828437600081840152601f19601f82011690508083019250505050505050919291929080359060200190640100000000811115610b6257600080fd5b820183602082011115610b7457600080fd5b80359060200191846001830284011164010000000083111715610b9657600080fd5b91908080601f016020809104026020016040519081016040528093929190818152602001838380828437600081840152601f19601f82011690508083019250505050505050919291929080359060200190640100000000811115610bf957600080fd5b820183602082011115610c0b57600080fd5b80359060200191846001830284011164010000000083111715610c2d57600080fd5b91908080601f016020809104026020016040519081016040528093929190818152602001838380828437600081840152601f19601f82011690508083019250505050505050919291929080359060200190640100000000811115610c9057600080fd5b820183602082011115610ca257600080fd5b80359060200191846001830284011164010000000083111715610cc457600080fd5b91908080601f016020809104026020016040519081016040528093929190818152602001838380828437600081840152601f19601f82011690508083019250505050505050919291929050505061270e565b005b348015610d2457600080fd5b50610dde60048036036020811015610d3b57600080fd5b8101908080359060200190640100000000811115610d5857600080fd5b820183602082011115610d6a57600080fd5b80359060200191846001830284011164010000000083111715610d8c57600080fd5b91908080601f016020809104026020016040519081016040528093929190818152602001838380828437600081840152601f19601f8201169050808301925050505050505091929192905050506129dc565b6040518080602001806020018060200180602001806020018060200187810387528d818151815260200191508051906020019080838360005b83811015610e32578082015181840152602081019050610e17565b50505050905090810190601f168015610e5f5780820380516001836020036101000a031916815260200191505b5087810386528c818151815260200191508051906020019080838360005b83811015610e98578082015181840152602081019050610e7d565b50505050905090810190601f168015610ec55780820380516001836020036101000a031916815260200191505b5087810385528b818151815260200191508051906020019080838360005b83811015610efe578082015181840152602081019050610ee3565b50505050905090810190601f168015610f2b5780820380516001836020036101000a031916815260200191505b5087810384528a818151815260200191508051906020019080838360005b83811015610f64578082015181840152602081019050610f49565b50505050905090810190601f168015610f915780820380516001836020036101000a031916815260200191505b50878103835289818151815260200191508051906020019080838360005b83811015610fca578082015181840152602081019050610faf565b50505050905090810190601f168015610ff75780820380516001836020036101000a031916815260200191505b50878103825288818151815260200191508051906020019080838360005b83811015611030578082015181840152602081019050611015565b50505050905090810190601f16801561105d5780820380516001836020036101000a031916815260200191505b509c5050505050505050505050505060405180910390f35b34801561108157600080fd5b506111dc6004803603606081101561109857600080fd5b81019080803590602001906401000000008111156110b557600080fd5b8201836020820111156110c757600080fd5b803590602001918460018302840111640100000000831117156110e957600080fd5b91908080601f016020809104026020016040519081016040528093929190818152602001838380828437600081840152601f19601f8201169050808301925050505050505091929192908035906020019064010000000081111561114c57600080fd5b82018360208201111561115e57600080fd5b8035906020019184600183028401116401000000008311171561118057600080fd5b91908080601f016020809104026020016040519081016040528093929190818152602001838380828437600081840152601f19601f82011690508083019250505050505050919291929080359060200190929190505050613543565b005b3480156111ea57600080fd5b506112a46004803603602081101561120157600080fd5b810190808035906020019064010000000081111561121e57600080fd5b82018360208201111561123057600080fd5b8035906020019184600183028401116401000000008311171561125257600080fd5b91908080601f016020809104026020016040519081016040528093929190818152602001838380828437600081840152601f19601f8201169050808301925050505050505091929192905050506137ab565b005b606060008060006002856040518082805190602001908083835b6020831015156112e557805182526020820191506020810190506020830392506112c0565b6001836020036101000a03801982511681845116808217855250505050505090500191505090815260200160405180910390206001016002866040518082805190602001908083835b602083101515611353578051825260208201915060208101905060208303925061132e565b6001836020036101000a0380198251168184511680821785525050505050509050019150509081526020016040518091039020600201546002876040518082805190602001908083835b6020831015156113c2578051825260208201915060208101905060208303925061139d565b6001836020036101000a0380198251168184511680821785525050505050509050019150509081526020016040518091039020600301546002886040518082805190602001908083835b602083101515611431578051825260208201915060208101905060208303925061140c565b6001836020036101000a038019825116818451168082178552505050505050905001915050908152602001604051809103902060040154838054600181600116156101000203166002900480601f0160208091040260200160405190810160405280929190818152602001828054600181600116156101000203166002900480156114fd5780601f106114d2576101008083540402835291602001916114fd565b820191906000526020600020905b8154815290600101906020018083116114e057829003601f168201915b5050505050935093509350935093509193509193565b606080606060003373ffffffffffffffffffffffffffffffffffffffff166000866040518082805190602001908083835b6020831015156115695780518252602082019150602081019050602083039250611544565b6001836020036101000a038019825116818451168082178552505050505050905001915050908152602001604051809103902060040160009054906101000a900473ffffffffffffffffffffffffffffffffffffffff1673ffffffffffffffffffffffffffffffffffffffff16148061162f57503373ffffffffffffffffffffffffffffffffffffffff16600360009054906101000a900473ffffffffffffffffffffffffffffffffffffffff1673ffffffffffffffffffffffffffffffffffffffff16145b151561163a57600080fd5b6000856040518082805190602001908083835b602083101515611672578051825260208201915060208101905060208303925061164d565b6001836020036101000a03801982511681845116808217855250505050505090500191505090815260200160405180910390206001016000866040518082805190602001908083835b6020831015156116e057805182526020820191506020810190506020830392506116bb565b6001836020036101000a03801982511681845116808217855250505050505090500191505090815260200160405180910390206002016000876040518082805190602001908083835b60208310151561174e5780518252602082019150602081019050602083039250611729565b6001836020036101000a03801982511681845116808217855250505050505090500191505090815260200160405180910390206003016000886040518082805190602001908083835b6020831015156117bc5780518252602082019150602081019050602083039250611797565b6001836020036101000a038019825116818451168082178552505050505050905001915050908152602001604051809103902060040160149054906101000a900460ff16838054600181600116156101000203166002900480601f0160208091040260200160405190810160405280929190818152602001828054600181600116156101000203166002900480156118955780601f1061186a57610100808354040283529160200191611895565b820191906000526020600020905b81548152906001019060200180831161187857829003601f168201915b50505050509350828054600181600116156101000203166002900480601f0160208091040260200160405190810160405280929190818152602001828054600181600116156101000203166002900480156119315780601f1061190657610100808354040283529160200191611931565b820191906000526020600020905b81548152906001019060200180831161191457829003601f168201915b50505050509250818054600181600116156101000203166002900480601f0160208091040260200160405190810160405280929190818152602001828054600181600116156101000203166002900480156119cd5780601f106119a2576101008083540402835291602001916119cd565b820191906000526020600020905b8154815290600101906020018083116119b057829003601f168201915b5050505050915093509350935093509193509193565b600454341415156119f357600080fd5b600080826040518082805190602001908083835b602083101515611a2c5780518252602082019150602081019050602083039250611a07565b6001836020036101000a038019825116818451168082178552505050505050905001915050908152602001604051809103902060010180546001816001161561010002031660029004905014151515611a8457600080fd5b6000825114151515611a9557600080fd5b611a9d613ad8565b85816000018190525033816020019073ffffffffffffffffffffffffffffffffffffffff16908173ffffffffffffffffffffffffffffffffffffffff1681525050848160400181905250838160600181905250828160800181905250818160a0018190525060008160c0019015159081151581525050806001876040518082805190602001908083835b602083101515611b4c5780518252602082019150602081019050602083039250611b27565b6001836020036101000a03801982511681845116808217855250505050505090500191505090815260200160405180910390206000820151816000019080519060200190611b9b929190613b2e565b5060208201518160010160006101000a81548173ffffffffffffffffffffffffffffffffffffffff021916908373ffffffffffffffffffffffffffffffffffffffff1602179055506040820151816002019080519060200190611bff929190613b2e565b506060820151816003019080519060200190611c1c929190613b2e565b506080820151816004019080519060200190611c39929190613b2e565b5060a0820151816005019080519060200190611c56929190613b2e565b5060c08201518160060160006101000a81548160ff021916908315150217905550905050505050505050565b60608060608060608060003373ffffffffffffffffffffffffffffffffffffffff166001896040518082805190602001908083835b602083101515611cdc5780518252602082019150602081019050602083039250611cb7565b6001836020036101000a038019825116818451168082178552505050505050905001915050908152602001604051809103902060010160009054906101000a900473ffffffffffffffffffffffffffffffffffffffff1673ffffffffffffffffffffffffffffffffffffffff161480611da257503373ffffffffffffffffffffffffffffffffffffffff16600360009054906101000a900473ffffffffffffffffffffffffffffffffffffffff1673ffffffffffffffffffffffffffffffffffffffff16145b80611ed957503373ffffffffffffffffffffffffffffffffffffffff16600060018a6040518082805190602001908083835b602083101515611df95780518252602082019150602081019050602083039250611dd4565b6001836020036101000a03801982511681845116808217855250505050505090500191505090815260200160405180910390206005016040518082805460018160011615610100020316600290048015611e8a5780601f10611e68576101008083540402835291820191611e8a565b820191906000526020600020905b815481529060010190602001808311611e76575b5050915050908152602001604051809103902060040160009054906101000a900473ffffffffffffffffffffffffffffffffffffffff1673ffffffffffffffffffffffffffffffffffffffff16145b1515611ee457600080fd5b60006001896040518082805190602001908083835b602083101515611f1e5780518252602082019150602081019050602083039250611ef9565b6001836020036101000a03801982511681845116808217855250505050505090500191505090815260200160405180910390206005016040518082805460018160011615610100020316600290048015611faf5780601f10611f8d576101008083540402835291820191611faf565b820191906000526020600020905b815481529060010190602001808311611f9b575b50509150509081526020016040518091039020600101600060018a6040518082805190602001908083835b602083101515611fff5780518252602082019150602081019050602083039250611fda565b6001836020036101000a038019825116818451168082178552505050505050905001915050908152602001604051809103902060050160405180828054600181600116156101000203166002900480156120905780601f1061206e576101008083540402835291820191612090565b820191906000526020600020905b81548152906001019060200180831161207c575b50509150509081526020016040518091039020600201600060018b6040518082805190602001908083835b6020831015156120e057805182526020820191506020810190506020830392506120bb565b6001836020036101000a038019825116818451168082178552505050505050905001915050908152602001604051809103902060050160405180828054600181600116156101000203166002900480156121715780601f1061214f576101008083540402835291820191612171565b820191906000526020600020905b81548152906001019060200180831161215d575b5050915050908152602001604051809103902060030160018b6040518082805190602001908083835b6020831015156121bf578051825260208201915060208101905060208303925061219a565b6001836020036101000a038019825116818451168082178552505050505050905001915050908152602001604051809103902060040160018c6040518082805190602001908083835b60208310151561222d5780518252602082019150602081019050602083039250612208565b6001836020036101000a038019825116818451168082178552505050505050905001915050908152602001604051809103902060020160018d6040518082805190602001908083835b60208310151561229b5780518252602082019150602081019050602083039250612276565b6001836020036101000a038019825116818451168082178552505050505050905001915050908152602001604051809103902060030160018e6040518082805190602001908083835b60208310151561230957805182526020820191506020810190506020830392506122e4565b6001836020036101000a038019825116818451168082178552505050505050905001915050908152602001604051809103902060060160009054906101000a900460ff16868054600181600116156101000203166002900480601f0160208091040260200160405190810160405280929190818152602001828054600181600116156101000203166002900480156123e25780601f106123b7576101008083540402835291602001916123e2565b820191906000526020600020905b8154815290600101906020018083116123c557829003601f168201915b50505050509650858054600181600116156101000203166002900480601f01602080910402602001604051908101604052809291908181526020018280546001816001161561010002031660029004801561247e5780601f106124535761010080835404028352916020019161247e565b820191906000526020600020905b81548152906001019060200180831161246157829003601f168201915b50505050509550848054600181600116156101000203166002900480601f01602080910402602001604051908101604052809291908181526020018280546001816001161561010002031660029004801561251a5780601f106124ef5761010080835404028352916020019161251a565b820191906000526020600020905b8154815290600101906020018083116124fd57829003601f168201915b50505050509450838054600181600116156101000203166002900480601f0160208091040260200160405190810160405280929190818152602001828054600181600116156101000203166002900480156125b65780601f1061258b576101008083540402835291602001916125b6565b820191906000526020600020905b81548152906001019060200180831161259957829003601f168201915b50505050509350828054600181600116156101000203166002900480601f0160208091040260200160405190810160405280929190818152602001828054600181600116156101000203166002900480156126525780601f1061262757610100808354040283529160200191612652565b820191906000526020600020905b81548152906001019060200180831161263557829003601f168201915b50505050509250818054600181600116156101000203166002900480601f0160208091040260200160405190810160405280929190818152602001828054600181600116156101000203166002900480156126ee5780601f106126c3576101008083540402835291602001916126ee565b820191906000526020600020905b8154815290600101906020018083116126d157829003601f168201915b505050505091509650965096509650965096509650919395979092949650565b6000835114151515612788576040517f08c379a00000000000000000000000000000000000000000000000000000000081526004018080602001828103825260048152602001807f544553540000000000000000000000000000000000000000000000000000000081525060200191505060405180910390fd5b600015156000856040518082805190602001908083835b6020831015156127c4578051825260208201915060208101905060208303925061279f565b6001836020036101000a038019825116818451168082178552505050505050905001915050908152602001604051809103902060040160149054906101000a900460ff16151514151561281657600080fd5b61281e613bae565b84816000018190525083816020018190525082816040018190525081816060018190525033816080019073ffffffffffffffffffffffffffffffffffffffff16908173ffffffffffffffffffffffffffffffffffffffff168152505060018160a0019015159081151581525050806000866040518082805190602001908083835b6020831015156128c4578051825260208201915060208101905060208303925061289f565b6001836020036101000a03801982511681845116808217855250505050505090500191505090815260200160405180910390206000820151816000019080519060200190612913929190613b2e565b506020820151816001019080519060200190612930929190613b2e565b50604082015181600201908051906020019061294d929190613b2e565b50606082015181600301908051906020019061296a929190613b2e565b5060808201518160040160006101000a81548173ffffffffffffffffffffffffffffffffffffffff021916908373ffffffffffffffffffffffffffffffffffffffff16021790555060a08201518160040160146101000a81548160ff0219169083151502179055509050505050505050565b6060806060806060808660006002826040518082805190602001908083835b602083101515612a2057805182526020820191506020810190506020830392506129fb565b6001836020036101000a038019825116818451168082178552505050505050905001915050908152602001604051809103902060000180546001816001161561010002031660029004905014151515612a7857600080fd5b6002816040518082805190602001908083835b602083101515612ab05780518252602082019150602081019050602083039250612a8b565b6001836020036101000a0380198251168184511680821785525050505050509050019150509081526020016040518091039020600201544210158015612b6457506002816040518082805190602001908083835b602083101515612b295780518252602082019150602081019050602083039250612b04565b6001836020036101000a0380198251168184511680821785525050505050509050019150509081526020016040518091039020600301544211155b1515612b6f57600080fd5b6001151560016002836040518082805190602001908083835b602083101515612bad5780518252602082019150602081019050602083039250612b88565b6001836020036101000a03801982511681845116808217855250505050505090500191505090815260200160405180910390206001016040518082805460018160011615610100020316600290048015612c3e5780601f10612c1c576101008083540402835291820191612c3e565b820191906000526020600020905b815481529060010190602001808311612c2a575b5050915050908152602001604051809103902060060160009054906101000a900460ff161515141515612cd9576040517f08c379a00000000000000000000000000000000000000000000000000000000081526004018080602001828103825260058152602001807f4552524f5200000000000000000000000000000000000000000000000000000081525060200191505060405180910390fd5b60606002896040518082805190602001908083835b602083101515612d135780518252602082019150602081019050602083039250612cee565b6001836020036101000a03801982511681845116808217855250505050505090500191505090815260200160405180910390206001018054600181600116156101000203166002900480601f016020809104026020016040519081016040528092919081815260200182805460018160011615610100020316600290048015612ddd5780601f10612db257610100808354040283529160200191612ddd565b820191906000526020600020905b815481529060010190602001808311612dc057829003601f168201915b5050505050905060606001826040518082805190602001908083835b602083101515612e1e5780518252602082019150602081019050602083039250612df9565b6001836020036101000a03801982511681845116808217855250505050505090500191505090815260200160405180910390206005018054600181600116156101000203166002900480601f016020809104026020016040519081016040528092919081815260200182805460018160011615610100020316600290048015612ee85780601f10612ebd57610100808354040283529160200191612ee8565b820191906000526020600020905b815481529060010190602001808311612ecb57829003601f168201915b505050505090506000816040518082805190602001908083835b602083101515612f275780518252602082019150602081019050602083039250612f02565b6001836020036101000a03801982511681845116808217855250505050505090500191505090815260200160405180910390206001016000826040518082805190602001908083835b602083101515612f955780518252602082019150602081019050602083039250612f70565b6001836020036101000a03801982511681845116808217855250505050505090500191505090815260200160405180910390206002016000836040518082805190602001908083835b6020831015156130035780518252602082019150602081019050602083039250612fde565b6001836020036101000a03801982511681845116808217855250505050505090500191505090815260200160405180910390206003016001856040518082805190602001908083835b602083101515613071578051825260208201915060208101905060208303925061304c565b6001836020036101000a03801982511681845116808217855250505050505090500191505090815260200160405180910390206004016001866040518082805190602001908083835b6020831015156130df57805182526020820191506020810190506020830392506130ba565b6001836020036101000a03801982511681845116808217855250505050505090500191505090815260200160405180910390206002016001876040518082805190602001908083835b60208310151561314d5780518252602082019150602081019050602083039250613128565b6001836020036101000a0380198251168184511680821785525050505050509050019150509081526020016040518091039020600301858054600181600116156101000203166002900480601f0160208091040260200160405190810160405280929190818152602001828054600181600116156101000203166002900480156132185780601f106131ed57610100808354040283529160200191613218565b820191906000526020600020905b8154815290600101906020018083116131fb57829003601f168201915b50505050509550848054600181600116156101000203166002900480601f0160208091040260200160405190810160405280929190818152602001828054600181600116156101000203166002900480156132b45780601f10613289576101008083540402835291602001916132b4565b820191906000526020600020905b81548152906001019060200180831161329757829003601f168201915b50505050509450838054600181600116156101000203166002900480601f0160208091040260200160405190810160405280929190818152602001828054600181600116156101000203166002900480156133505780601f1061332557610100808354040283529160200191613350565b820191906000526020600020905b81548152906001019060200180831161333357829003601f168201915b50505050509350828054600181600116156101000203166002900480601f0160208091040260200160405190810160405280929190818152602001828054600181600116156101000203166002900480156133ec5780601f106133c1576101008083540402835291602001916133ec565b820191906000526020600020905b8154815290600101906020018083116133cf57829003601f168201915b50505050509250818054600181600116156101000203166002900480601f0160208091040260200160405190810160405280929190818152602001828054600181600116156101000203166002900480156134885780601f1061345d57610100808354040283529160200191613488565b820191906000526020600020905b81548152906001019060200180831161346b57829003601f168201915b50505050509150808054600181600116156101000203166002900480601f0160208091040260200160405190810160405280929190818152602001828054600181600116156101000203166002900480156135245780601f106134f957610100808354040283529160200191613524565b820191906000526020600020905b81548152906001019060200180831161350757829003601f168201915b5050505050905098509850985098509850985050505091939550919395565b3373ffffffffffffffffffffffffffffffffffffffff166001836040518082805190602001908083835b602083101515613592578051825260208201915060208101905060208303925061356d565b6001836020036101000a038019825116818451168082178552505050505050905001915050908152602001604051809103902060010160009054906101000a900473ffffffffffffffffffffffffffffffffffffffff1673ffffffffffffffffffffffffffffffffffffffff1614151561360b57600080fd5b60006002846040518082805190602001908083835b6020831015156136455780518252602082019150602081019050602083039250613620565b6001836020036101000a038019825116818451168082178552505050505050905001915050908152602001604051809103902060000180546001816001161561010002031660029004905014151561369c57600080fd5b6136a4613bfd565b838160000181905250828160200181905250428160400181815250506018603c8084020202420181606001818152505081816080018181525050806002856040518082805190602001908083835b60208310151561371757805182526020820191506020810190506020830392506136f2565b6001836020036101000a03801982511681845116808217855250505050505090500191505090815260200160405180910390206000820151816000019080519060200190613766929190613b2e565b506020820151816001019080519060200190613783929190613b2e565b5060408201518160020155606082015181600301556080820151816004015590505050505050565b60006001826040518082805190602001908083835b6020831015156137e557805182526020820191506020810190506020830392506137c0565b6001836020036101000a03801982511681845116808217855250505050505090500191505090815260200160405180910390206000018054600181600116156101000203166002900490501415151561383d57600080fd5b600015156001826040518082805190602001908083835b6020831015156138795780518252602082019150602081019050602083039250613854565b6001836020036101000a038019825116818451168082178552505050505050905001915050908152602001604051809103902060060160009054906101000a900460ff1615151415156138cb57600080fd5b3373ffffffffffffffffffffffffffffffffffffffff1660006001836040518082805190602001908083835b60208310151561391c57805182526020820191506020810190506020830392506138f7565b6001836020036101000a038019825116818451168082178552505050505050905001915050908152602001604051809103902060050160405180828054600181600116156101000203166002900480156139ad5780601f1061398b5761010080835404028352918201916139ad565b820191906000526020600020905b815481529060010190602001808311613999575b5050915050908152602001604051809103902060040160009054906101000a900473ffffffffffffffffffffffffffffffffffffffff1673ffffffffffffffffffffffffffffffffffffffff16141515613a0657600080fd5b600180826040518082805190602001908083835b602083101515613a3f5780518252602082019150602081019050602083039250613a1a565b6001836020036101000a038019825116818451168082178552505050505050905001915050908152602001604051809103902060060160006101000a81548160ff0219169083151502179055503373ffffffffffffffffffffffffffffffffffffffff166108fc6004549081150290604051600060405180830381858888f19350505050158015613ad4573d6000803e3d6000fd5b5050565b60e06040519081016040528060608152602001600073ffffffffffffffffffffffffffffffffffffffff168152602001606081526020016060815260200160608152602001606081526020016000151581525090565b828054600181600116156101000203166002900490600052602060002090601f016020900481019282601f10613b6f57805160ff1916838001178555613b9d565b82800160010185558215613b9d579182015b82811115613b9c578251825591602001919060010190613b81565b5b509050613baa9190613c2d565b5090565b60c06040519081016040528060608152602001606081526020016060815260200160608152602001600073ffffffffffffffffffffffffffffffffffffffff1681526020016000151581525090565b60a06040519081016040528060608152602001606081526020016000815260200160008152602001600081525090565b613c4f91905b80821115613c4b576000816000905550600101613c33565b5090565b9056fea165627a7a7230582047c7e85c54c3b9f1b9776ed6c3aa64410fde5911d22695b24b59d4eea20ff8280029",
  "source": "pragma solidity ^0.5.0;\n\ncontract CertManager {\n\n\n    // key string: certTypeId\n    //string[] certTypeIds;\n    mapping (string => CertType) certTypes;\n    struct CertType {\n        string certTypeId;\n        string name;\n        string issuerName;\n        string descUrl;\n        address issuerAddress;      // register address\n        bool isValid;               // if problems is occurred, set it false\n    }\n\n    // key string: certId\n    //string[] certIds;\n    mapping (string => PersonalCert) personalCerts;\n    struct PersonalCert {\n        string certId;\n        address ownerAddress;   // student\n        string issuedDt;\n        string validThroughDt;\n        string certNo;    // issued cert. No.\n        string certTypeId;\n        bool isConfirmed;  // default false;\n\n    }\n\n    // key string: tokenId\n    mapping (string => CertToken) certTokens;\n    struct CertToken {\n        string tokenId;\n        string certId;\n        uint256 startDt;\n        uint256 endDt;  // calculated value: startDt + validDay*60*60*24\n        uint validDay;\n    }\n\n    address payable owner = msg.sender;\n\n    modifier onlyOwner() {\n        require( owner == msg.sender );\n        _;\n    }\n\n    //uint x;\n    //constructor () public {\n    //owner = msg.sender;\n    //    x = 1;\n    //}\n\n\n    /**\n    * The issuers register certificate\n    * sample: \"CT001\", \"Blockchain Proficiency\", \"Consensys Academy\", \"https://consensys.net/academy/\"\n    * sample: \"CT002\", \"AWS Certification\", \"AWS\", \"https://aws.amazon.com/certification/?nc1=h_ls\"\n    * sample: \"CT003\", \"TOEIC\", \"ETS\", \"https://www.ets.org/toeic\"\n    */\n    function registerCertType(string memory _certTypeId, string memory _name, string memory _issuerName, string memory _descUrl) public {\n        require( bytes(_name).length != 0, \"TEST\");\n        require( certTypes[_certTypeId].isValid == false); // update is not permitted\n\n        CertType memory newCertType;\n        newCertType.certTypeId = _certTypeId;\n        newCertType.name = _name;\n        newCertType.issuerName = _issuerName;\n        newCertType.descUrl = _descUrl;\n        newCertType.issuerAddress = msg.sender;\n        newCertType.isValid = true;\n\n        certTypes[_certTypeId] = newCertType;\n    }\n\n\n    /**\n    * The issuer can see his certType info and contract owner can see the all certType info\n    * return string: certTypeName\n    * return string: issuerName\n    * return string: descUrl\n    * return bool: isValid\n    */\n    function viewCertTypeInfo(string memory _certTypeId) public view returns(string memory, string memory, string memory, bool) {\n        require( certTypes[_certTypeId].issuerAddress == msg.sender || owner == msg.sender );\n\n        return (\n        certTypes[_certTypeId].name,\n        certTypes[_certTypeId].issuerName,\n        certTypes[_certTypeId].descUrl,\n        certTypes[_certTypeId].isValid\n        );\n    }\n\n\n    uint CERT_REGISTRATION_FEE = 1 ether;\n    /**\n    * The student regiester personal certificate\n    * sample: \"0\", \"2018-01-01\", \"2022-01-01\", \"Blockchain000\", \"CT001\" // Blockchain Proficiency\n    * sample: \"1\", \"2018-02-01\", \"2028-01-01\", \"AWS_CLOUD_111\", \"CT002\" // AWS Certification\n    * sample: \"2\", \"2018-03-01\", \"2099-12-31\", \"AWS_CA_2222\", \"CT002\" // AWS Certification\n    * TODO: add money\n    * TODO: send some money to issuer\n    */\n    function registerPersonalCert(string memory _certId, string memory _issueDt, string memory _validThroughDt, string memory _certNo, string memory _certTypeId) public payable {\n        require( msg.value == CERT_REGISTRATION_FEE );\n        require( bytes(certTypes[_certTypeId].name).length != 0 ); // certType must be generated\n        require( bytes(_certNo).length != 0 ); // certNo should not be empty\n\n        PersonalCert memory newPersonalCert;\n        newPersonalCert.certId = _certId;\n        newPersonalCert.ownerAddress = msg.sender;\n        newPersonalCert.issuedDt = _issueDt;\n        newPersonalCert.validThroughDt = _validThroughDt;\n        newPersonalCert.certNo = _certNo;\n        newPersonalCert.certTypeId = _certTypeId;\n        newPersonalCert.isConfirmed = false;\n\n        personalCerts[_certId] = newPersonalCert;\n    }\n\n\n    /**\n    * The issuer confirm the certificate which was regisered by students\n    * Consider: why the issuer pay a gas?\n    * because of gas,\n    * examples: 0, 1, 2\n    */\n    function confirmPersonalCert(string memory _certId) public {\n        require( bytes(personalCerts[_certId].certId).length != 0 );  // check existence for personalCert\n        require( personalCerts[_certId].isConfirmed == false );  // for gas ..\n        require( certTypes[ personalCerts[_certId].certTypeId ].issuerAddress == msg.sender );  // check certType issuer's address\n\n        // update as confirmed\n        personalCerts[_certId].isConfirmed = true;\n\n        // receive money\n        msg.sender.transfer(CERT_REGISTRATION_FEE);\n    }\n\n\n    /**\n    * generate key value for personal certificate\n    * sample: \"0\", \"0\", 10  (valid for 10 days)\n    * sample: \"1\", \"0\", 0  (for invalid test)\n    */\n    function registerCertToken(string memory _tokenId, string memory _certId, uint _validDay) public {\n        require( personalCerts[_certId].ownerAddress == msg.sender ); // check owner (student)\n        require( bytes(certTokens[_tokenId].tokenId).length == 0 );  // only new tokenId is allowed\n\n        CertToken memory newCertToken;\n        newCertToken.tokenId = _tokenId;\n        newCertToken.certId = _certId;\n        newCertToken.startDt = now;\n        newCertToken.endDt = now + _validDay*60*60*24;\n        newCertToken.validDay = _validDay;\n\n        certTokens[_tokenId] = newCertToken;\n    }\n\n\n    /**\n    * check token's existance, duration and confirmeation\n    */\n    modifier checkTokenAddress(string memory _tokenId) {\n        require( bytes(certTokens[_tokenId].tokenId).length != 0);\n        require( now >= certTokens[_tokenId].startDt && now <= certTokens[_tokenId].endDt );\n        require( personalCerts[ certTokens[_tokenId].certId ].isConfirmed == true , \"ERROR\");\n        _;\n    }\n\n\n    /**\n    * anyone who has a valid token can see the personal cert info\n    * return string: certTypeName\n    * return string: issuerName\n    * return string: descUrl (for certType)\n    * return string: certNo\n    * return uint256: issuedDate\n    * return uint256: validThroughDt\n    */\n    function viewPersonalCertByToken(string memory _tokenId) checkTokenAddress(_tokenId) public view returns(string memory, string memory, string memory, string memory, string memory, string memory) {\n        string memory certId = certTokens[_tokenId].certId;\n        string memory certTypeId = personalCerts[certId].certTypeId;\n\n        return (\n        certTypes[certTypeId].name,\n        certTypes[certTypeId].issuerName,\n        certTypes[certTypeId].descUrl,\n        personalCerts[certId].certNo,\n        personalCerts[certId].issuedDt,\n        personalCerts[certId].validThroughDt\n        );\n    }\n\n\n    /**\n    * student can see his personal cert info & issuer can also see its personal cert which belongs to the issuer\n    * return string: certTypeName\n    * return string: issuerName\n    * return string: descUrl (for certType)\n    * return string: certNo\n    * return uint256: issuedDate\n    * return uint256: validThroughDt\n    * return bool: isConfirmed\n    */\n    function viewPersonalCertByCertId(string memory _certId) public view returns(string memory, string memory, string memory, string memory, string memory, string memory, bool) {\n        require( personalCerts[_certId].ownerAddress == msg.sender || owner == msg.sender || certTypes[personalCerts[_certId].certTypeId].issuerAddress == msg.sender );\n\n        return (\n        certTypes[personalCerts[_certId].certTypeId].name,\n        certTypes[personalCerts[_certId].certTypeId].issuerName,\n        certTypes[personalCerts[_certId].certTypeId].descUrl,\n        personalCerts[_certId].certNo,\n        personalCerts[_certId].issuedDt,\n        personalCerts[_certId].validThroughDt,\n        personalCerts[_certId].isConfirmed\n        );\n    }\n\n\n    /**\n    * anybody can see the token info because it doesn't include any personal data\n    * return address: certId\n    * return uint: startDt\n    * return uint: endDt (calculated)\n    * return uint: durationDay\n    * To-be consideration: finding specific student's token is not easy..\n    *                      need to change the structure of this code..\n    *                      need to manage both all token list and only specific student's tokens ..\n    */\n    function viewTokenDetail(string memory _tokenId) public view returns(string memory, uint, uint, uint) {\n        return (\n        certTokens[_tokenId].certId,\n        certTokens[_tokenId].startDt,\n        certTokens[_tokenId].endDt,\n        certTokens[_tokenId].validDay\n        );\n    }\n}\n",
  "sourcePath": "/Users/foxez/consensys/certManager/contracts/CertManager.sol",
  "compiler": {
    "name": "solc",
    "version": "0.5.0+commit.1d4f565a.Emscripten.clang"
  },
  "schemaVersion": "3.0.1",
  "updatedAt": "2019-02-13T14:35:12.360Z",
  "devdoc": {
    "methods": {}
  },
  "userdoc": {
    "methods": {
      "confirmPersonalCert(string)": {
        "notice": "The issuer confirm the certificate which was regisered by students Consider: why the issuer pay a gas? because of gas, examples: 0, 1, 2"
      },
      "registerCertToken(string,string,uint256)": {
        "notice": "generate key value for personal certificate sample: \"0\", \"0\", 10  (valid for 10 days) sample: \"1\", \"0\", 0  (for invalid test)"
      },
      "registerCertType(string,string,string,string)": {
        "notice": "The issuers register certificate sample: \"CT001\", \"Blockchain Proficiency\", \"Consensys Academy\", \"https://consensys.net/academy/\" sample: \"CT002\", \"AWS Certification\", \"AWS\", \"https://aws.amazon.com/certification/?nc1=h_ls\" sample: \"CT003\", \"TOEIC\", \"ETS\", \"https://www.ets.org/toeic\""
      },
      "registerPersonalCert(string,string,string,string,string)": {
        "notice": "The student regiester personal certificate sample: \"0\", \"2018-01-01\", \"2022-01-01\", \"Blockchain000\", \"CT001\" // Blockchain Proficiency sample: \"1\", \"2018-02-01\", \"2028-01-01\", \"AWS_CLOUD_111\", \"CT002\" // AWS Certification sample: \"2\", \"2018-03-01\", \"2099-12-31\", \"AWS_CA_2222\", \"CT002\" // AWS Certification TODO: add money TODO: send some money to issuer"
      },
      "viewCertTypeInfo(string)": {
        "notice": "The issuer can see his certType info and contract owner can see the all certType info return string: certTypeName return string: issuerName return string: descUrl return bool: isValid"
      },
      "viewPersonalCertByCertId(string)": {
        "notice": "student can see his personal cert info & issuer can also see its personal cert which belongs to the issuer return string: certTypeName return string: issuerName return string: descUrl (for certType) return string: certNo return uint256: issuedDate return uint256: validThroughDt return bool: isConfirmed"
      },
      "viewPersonalCertByToken(string)": {
        "notice": "anyone who has a valid token can see the personal cert info return string: certTypeName return string: issuerName return string: descUrl (for certType) return string: certNo return uint256: issuedDate return uint256: validThroughDt"
      },
      "viewTokenDetail(string)": {
        "notice": "anybody can see the token info because it doesn't include any personal data return address: certId return uint: startDt return uint: endDt (calculated) return uint: durationDay To-be consideration: finding specific student's token is not easy..                     need to change the structure of this code..                     need to manage both all token list and only specific student's tokens .."
      }
    }
  }
}